{
  "contractName": "Cinema",
  "abi": [
    {
      "inputs": [],
      "stateMutability": "nonpayable",
      "type": "constructor"
    },
    {
      "inputs": [],
      "name": "owner",
      "outputs": [
        {
          "internalType": "address",
          "name": "",
          "type": "address"
        }
      ],
      "stateMutability": "view",
      "type": "function"
    },
    {
      "inputs": [
        {
          "internalType": "uint256",
          "name": "",
          "type": "uint256"
        },
        {
          "internalType": "uint256",
          "name": "",
          "type": "uint256"
        }
      ],
      "name": "seatsBooked",
      "outputs": [
        {
          "internalType": "uint256",
          "name": "",
          "type": "uint256"
        }
      ],
      "stateMutability": "view",
      "type": "function"
    },
    {
      "inputs": [
        {
          "internalType": "address",
          "name": "",
          "type": "address"
        },
        {
          "internalType": "uint256",
          "name": "",
          "type": "uint256"
        }
      ],
      "name": "userToTickets",
      "outputs": [
        {
          "internalType": "address",
          "name": "owner",
          "type": "address"
        },
        {
          "internalType": "uint256",
          "name": "seatNumber",
          "type": "uint256"
        },
        {
          "internalType": "uint256",
          "name": "movieId",
          "type": "uint256"
        },
        {
          "internalType": "string",
          "name": "movieName",
          "type": "string"
        },
        {
          "internalType": "uint256",
          "name": "seatType",
          "type": "uint256"
        },
        {
          "internalType": "uint256",
          "name": "price",
          "type": "uint256"
        }
      ],
      "stateMutability": "view",
      "type": "function"
    },
    {
      "inputs": [
        {
          "internalType": "uint256",
          "name": "id",
          "type": "uint256"
        },
        {
          "internalType": "uint256",
          "name": "bookId",
          "type": "uint256"
        },
        {
          "internalType": "uint256",
          "name": "_type",
          "type": "uint256"
        },
        {
          "internalType": "string",
          "name": "_movieName",
          "type": "string"
        }
      ],
      "name": "bookTicket",
      "outputs": [
        {
          "internalType": "bool",
          "name": "",
          "type": "bool"
        }
      ],
      "stateMutability": "payable",
      "type": "function"
    },
    {
      "inputs": [
        {
          "internalType": "uint256",
          "name": "id",
          "type": "uint256"
        }
      ],
      "name": "returnAllBooksIds",
      "outputs": [
        {
          "internalType": "uint256[]",
          "name": "",
          "type": "uint256[]"
        }
      ],
      "stateMutability": "view",
      "type": "function"
    }
  ],
  "bytecode": "0x608060405234801561001057600080fd5b50336000806101000a81548173ffffffffffffffffffffffffffffffffffffffff021916908373ffffffffffffffffffffffffffffffffffffffff160217905550610e72806100606000396000f3fe60806040526004361061004a5760003560e01c80636f6ae5f41461004f5780637fda97741461007f5780638da5cb5b146100bc578063c8fa3f03146100e7578063e39dd28714610124575b600080fd5b6100696004803603810190610064919061084e565b610166565b60405161007691906108ec565b60405180910390f35b34801561008b57600080fd5b506100a660048036038101906100a19190610907565b61045a565b6040516100b39190610956565b60405180910390f35b3480156100c857600080fd5b506100d161048b565b6040516100de91906109b2565b60405180910390f35b3480156100f357600080fd5b5061010e600480360381019061010991906109cd565b6104af565b60405161011b9190610ab8565b60405180910390f35b34801561013057600080fd5b5061014b60048036038101906101469190610b06565b61051a565b60405161015d96959493929190610bce565b60405180910390f35b600083856000600260008381526020019081526020016000208054806020026020016040519081016040528092919081815260200182805480156101c957602002820191906000526020600020905b8154815260200190600101908083116101b5575b505050505090506000805b825181101561021e57848382815181106101f1576101f0610c36565b5b6020026020010151141561020b5760019150505050610450565b808061021690610c94565b9150506101d4565b506000151581151514610266576040517f08c379a000000000000000000000000000000000000000000000000000000000815260040161025d90610d29565b60405180910390fd5b6000600288141561027a5760b49050610293565b600388141561028c5760969050610292565b61011890505b5b3481146102d5576040517f08c379a00000000000000000000000000000000000000000000000000000000081526004016102cc90610dbb565b60405180910390fd5b600160003373ffffffffffffffffffffffffffffffffffffffff1673ffffffffffffffffffffffffffffffffffffffff1681526020019081526020016000206040518060c001604052803373ffffffffffffffffffffffffffffffffffffffff1681526020018b81526020018c81526020018981526020018a815260200183815250908060018154018082558091505060019003906000526020600020906006020160009091909190915060008201518160000160006101000a81548173ffffffffffffffffffffffffffffffffffffffff021916908373ffffffffffffffffffffffffffffffffffffffff160217905550602082015181600101556040820151816002015560608201518160030190805190602001906103f792919061061b565b506080820151816004015560a082015181600501555050600260008b8152602001908152602001600020899080600181540180825580915050600190039060005260206000200160009091909190915055600195505050505b5050949350505050565b6002602052816000526040600020818154811061047657600080fd5b90600052602060002001600091509150505481565b60008054906101000a900473ffffffffffffffffffffffffffffffffffffffff1681565b60606002600083815260200190815260200160002080548060200260200160405190810160405280929190818152602001828054801561050e57602002820191906000526020600020905b8154815260200190600101908083116104fa575b50505050509050919050565b6001602052816000526040600020818154811061053657600080fd5b9060005260206000209060060201600091509150508060000160009054906101000a900473ffffffffffffffffffffffffffffffffffffffff169080600101549080600201549080600301805461058c90610e0a565b80601f01602080910402602001604051908101604052809291908181526020018280546105b890610e0a565b80156106055780601f106105da57610100808354040283529160200191610605565b820191906000526020600020905b8154815290600101906020018083116105e857829003601f168201915b5050505050908060040154908060050154905086565b82805461062790610e0a565b90600052602060002090601f0160209004810192826106495760008555610690565b82601f1061066257805160ff1916838001178555610690565b82800160010185558215610690579182015b8281111561068f578251825591602001919060010190610674565b5b50905061069d91906106a1565b5090565b5b808211156106ba5760008160009055506001016106a2565b5090565b6000604051905090565b600080fd5b600080fd5b6000819050919050565b6106e5816106d2565b81146106f057600080fd5b50565b600081359050610702816106dc565b92915050565b600080fd5b600080fd5b6000601f19601f8301169050919050565b7f4e487b7100000000000000000000000000000000000000000000000000000000600052604160045260246000fd5b61075b82610712565b810181811067ffffffffffffffff8211171561077a57610779610723565b5b80604052505050565b600061078d6106be565b90506107998282610752565b919050565b600067ffffffffffffffff8211156107b9576107b8610723565b5b6107c282610712565b9050602081019050919050565b82818337600083830152505050565b60006107f16107ec8461079e565b610783565b90508281526020810184848401111561080d5761080c61070d565b5b6108188482856107cf565b509392505050565b600082601f83011261083557610834610708565b5b81356108458482602086016107de565b91505092915050565b60008060008060808587031215610868576108676106c8565b5b6000610876878288016106f3565b9450506020610887878288016106f3565b9350506040610898878288016106f3565b925050606085013567ffffffffffffffff8111156108b9576108b86106cd565b5b6108c587828801610820565b91505092959194509250565b60008115159050919050565b6108e6816108d1565b82525050565b600060208201905061090160008301846108dd565b92915050565b6000806040838503121561091e5761091d6106c8565b5b600061092c858286016106f3565b925050602061093d858286016106f3565b9150509250929050565b610950816106d2565b82525050565b600060208201905061096b6000830184610947565b92915050565b600073ffffffffffffffffffffffffffffffffffffffff82169050919050565b600061099c82610971565b9050919050565b6109ac81610991565b82525050565b60006020820190506109c760008301846109a3565b92915050565b6000602082840312156109e3576109e26106c8565b5b60006109f1848285016106f3565b91505092915050565b600081519050919050565b600082825260208201905092915050565b6000819050602082019050919050565b610a2f816106d2565b82525050565b6000610a418383610a26565b60208301905092915050565b6000602082019050919050565b6000610a65826109fa565b610a6f8185610a05565b9350610a7a83610a16565b8060005b83811015610aab578151610a928882610a35565b9750610a9d83610a4d565b925050600181019050610a7e565b5085935050505092915050565b60006020820190508181036000830152610ad28184610a5a565b905092915050565b610ae381610991565b8114610aee57600080fd5b50565b600081359050610b0081610ada565b92915050565b60008060408385031215610b1d57610b1c6106c8565b5b6000610b2b85828601610af1565b9250506020610b3c858286016106f3565b9150509250929050565b600081519050919050565b600082825260208201905092915050565b60005b83811015610b80578082015181840152602081019050610b65565b83811115610b8f576000848401525b50505050565b6000610ba082610b46565b610baa8185610b51565b9350610bba818560208601610b62565b610bc381610712565b840191505092915050565b600060c082019050610be360008301896109a3565b610bf06020830188610947565b610bfd6040830187610947565b8181036060830152610c0f8186610b95565b9050610c1e6080830185610947565b610c2b60a0830184610947565b979650505050505050565b7f4e487b7100000000000000000000000000000000000000000000000000000000600052603260045260246000fd5b7f4e487b7100000000000000000000000000000000000000000000000000000000600052601160045260246000fd5b6000610c9f826106d2565b91507fffffffffffffffffffffffffffffffffffffffffffffffffffffffffffffffff821415610cd257610cd1610c65565b5b600182019050919050565b7f416c7265616420426f6f6b656400000000000000000000000000000000000000600082015250565b6000610d13600d83610b51565b9150610d1e82610cdd565b602082019050919050565b60006020820190508181036000830152610d4281610d06565b9050919050565b7f506c656173652050726f766964652053756666696369656e742042616c616e6360008201527f6500000000000000000000000000000000000000000000000000000000000000602082015250565b6000610da5602183610b51565b9150610db082610d49565b604082019050919050565b60006020820190508181036000830152610dd481610d98565b9050919050565b7f4e487b7100000000000000000000000000000000000000000000000000000000600052602260045260246000fd5b60006002820490506001821680610e2257607f821691505b60208210811415610e3657610e35610ddb565b5b5091905056fea26469706673582212206b2aa572a3f8fb9492f430e4d083957a644dc82765d6d43dd13a1bf42b4b0fb764736f6c634300080b0033",
  "immutableReferences": {},
  "source": "// SPDX-License-Identifier: MIT\r\npragma solidity >=0.4.22 <0.9.0;\r\n\r\ncontract Cinema{\r\n    address public owner;\r\n    constructor(){\r\n        owner=msg.sender;\r\n    }\r\n    enum Type{\r\n        PRIME,CLASSIC_PLUS,CLASSIC\r\n    }\r\n    struct MovieTickets{\r\n        address owner;\r\n        uint seatNumber;\r\n        uint movieId;\r\n        string movieName;\r\n        uint seatType;\r\n        uint price;\r\n    }\r\n    mapping(address=>MovieTickets[]) public userToTickets;\r\n    mapping(uint=>uint[]) public seatsBooked;\r\n    function bookTicket(uint id , uint bookId,uint _type,string memory _movieName) public payable alreadyBooked(bookId,id) returns(bool){\r\n        uint price;\r\n        \r\n        if(_type==2){\r\n           \r\n            price=180 wei;\r\n        }\r\n        else if(_type==3){\r\n            \r\n            price= 150 wei;\r\n        }else{\r\n            price=280 wei;\r\n        }\r\n        require(price==msg.value,\"Please Provide Sufficient Balance\");\r\n        userToTickets[msg.sender].push(MovieTickets(msg.sender,bookId,id,_movieName,_type,price));\r\n        seatsBooked[id].push(bookId);\r\n        return true;\r\n   }\r\n    function returnAllBooksIds(uint id) view public returns(uint[] memory){\r\n       return seatsBooked[id];\r\n   }\r\n\r\n   modifier alreadyBooked(uint bookId,uint id){\r\n       uint[] memory ids= seatsBooked[id];\r\n\r\n       bool flag=false;\r\n\r\n       for(uint i=0;i<ids.length;i++){\r\n           if(ids[i]==bookId){\r\n               flag=true;\r\n               return;\r\n           }\r\n       } \r\n       require(flag==false,\"Alread Booked\");\r\n       _;\r\n   }\r\n}",
  "sourcePath": "C:\\Users\\HP\\Desktop\\ssoc\\contracts\\Theatre.sol",
  "compiler": {
    "name": "solc",
    "version": "0.8.11+commit.d7f03943.Emscripten.clang"
  },
  "schemaVersion": "3.4.4",
  "updatedAt": "2022-07-23T08:27:22.640Z",
  "devdoc": {
    "kind": "dev",
    "methods": {},
    "version": 1
  },
  "userdoc": {
    "kind": "user",
    "methods": {},
    "version": 1
  }
}